S01400006C6564707261635F435055312E73726563BD
S3150208000000A40E2251060802190508026106080212
S31502080010610608026106080261060802610608020C
S31502080020000000000000000000000000610608024F
S31502080030610608020000000061060802610608025D
S3150208004080B56F4640F6D420C0F208200188002900
S3150208005054D040F6145945684AF28C4440F6000AD0
S3150208006043F6FA78C4F240090126C2F20E24C4F213
S31502080070400ACFF6FE784FF0000B09E080F31088AD
S315020800804FF4FA704FF47A718BF0010B00F0FEF917
S31502080090EFF3108086F31088216829B9002189F8C0
S315020800A00010402189F8001021684BF00402013142
S315020800B0216080F3108868886FF03F0101EA900199
S315020800C0C0B201EB800050F80A10D2B201EA080168
S315020800D0114340F80A10EFF3108086F3108821685E
S315020800E011B121680139216021680029C6D1002190
S315020800F089F80010802189F80010BFE7FEE7D4D4FA
S31502080100022818BF70474AF2304040F66401C2F22C
S315020801100E20C0F2082100F007B8D4D480B56F4685
S31502080120FFF78EFF002080BD80B56F4645F2542248
S31502080130C5F24F020260084600F002F8002080BDB0
S31502080140F0B503AF4DF804BD044600F05FF84AF275
S315020801508C4CEFF31080012181F31088C2F20E2C29
S31502080160DCF8001039B940F61451C4F240010022F5
S315020801700A7040220A70DCF800100131CCF800102F
S3150208018080F31088208820B340F6000E0021C4F2BE
S31502080190400E07E00EEB801040F82230208801312D
S315020801A0814216D2606800EBC102928850F831305B
S315020801B0100ADD03D2B2EDD50EEB801555F8226092
S315020801C026F4803645F8226023F4803645F8226004
S315020801D0E0E7EFF31081012080F31088DCF80000D5
S315020801E020B1DCF800000138CCF80000DCF8000089
S315020801F038B940F61450C4F2400000220270802238
S31502080200027081F310885DF804BBF0BDF0B503AF48
S315020802102DE9000F81B004460088002861D042F219
S3150208022040084EF64C4940F6700BC4F220080026E8
S31502080230C4F20109C0F2082B04E000BF2088013687
S3150208024086424ED2002508E008F81500C82001218A
S3150208025000F01CF90135032DF0D060683BF8152033
S3150208026000EBC60189889142F4D150F8360099F814
S315020802700010012200F0B85002FA05FAB0F1807FA8
S315020802800AEA010016D158B9012000F0B9F999F81D
S31502080290000040EA0A0089F80000012000F084F90B
S315020802A018F915000028D5D418F8150040F0800072
S315020802B0CAE700BF58B1012000F0A2F999F8000078
S315020802C020EA0A0089F80000012000F06DF918F901
S315020802D01500B0F1FF3FBDDC18F8150000F07F00ED
S315020802E0B2E701B0BDE8000FF0BDD4D44EF2240146
S315020802F0C4F2010188780988C1F30312A2F1080140
S3150208030003293BD8DFE801F0022C101E4AF200410D
S31502080310C2F20E2151F820004AF6AB21CAF6AA21EA
S31502080320A0FB0101480830E04AF20041C2F20E2160
S3150208033051F820004AF6AB21CAF6AA21A0FB010110
S31502080340C80822E04AF20041C2F20E2151F8200002
S315020803504AF6AB21CAF6AA21A0FB0101080914E054
S315020803604AF20041C2F20E2151F820004AF6AB21A8
S31502080370CAF6AA21A0FB0101880806E04AF2004152
S31502080380C2F20E2151F82000D0404AF29841C2F238
S315020803900E2108607047D4D4F0B503AF4DF804BDFA
S315020803A04AF2004046F6004141F20022C2F20E200D
S315020803B0C0F2DC21C0F27A0243F2006C4FF4004329
S315020803C0C0F26E1C80E80E1043F600024CF6002EB0
S315020803D044F2553448F2004544F2006640F60001FC
S315020803E0C1F69C42C3F69A3EC1F2DE34C1F2D77513
S315020803F0C2F2C336C2F6AF7182624EF22402C0E975
S31502080400043EC0E90664C0E90851C4F201029178C3
S315020804101288C2F30313A3F10802032A2BD8DFE8D2
S3150208042002F002200C1650F821004AF6AB21CAF651
S31502080430AA21A0FB0101480820E050F821004AF64B
S31502080440AB21CAF6AA21A0FB0101C80816E050F89A
S3150208045021004AF6AB21CAF6AA21A0FB0101080926
S315020804600CE050F821004AF6AB21CAF6AA21A0FBF5
S315020804700101880802E050F82100D8404AF2984162
S31502080480C2F20E2108605DF804BBF0BD4AF298423A
S31502080490C2F20E22126841F20023C0F27A039A428D
S315020804A001FB00F00FD340F6FF01C0F23D011144F3
S315020804B04DF68362C4F21B32A1FB0212110DA0FB98
S315020804C00101D9B11FE04CF6002348F63811C3F6EC
S315020804D09A33C0F24101B3FBF2F2884206D24FF4D4
S315020804E07A714843B0FBF2F0800807E09200B0FB4D
S315020804F0F2F0884207D24FF47A714843002808BFBF
S31502080500704700F005B84FF0FF3000F001B8D4D4B8
S3150208051001380028FCD17047F0B503AF4DF8048DB9
S315020805204CF22014C4F2000454F8200C21684AF252
S31502080530384801EA00050026C2F20E2803E000BF89
S315020805400136152E0AD025FA06F0C007F8D058F853
S3150208055026100029F4D0F0B28847F1E744F8105C77
S3150208056020682842FCD15DF8048BF0BD40F6C42011
S31502080570C0F208200088002808BF70474CF20031F4
S31502080580C4F2000146F2400C08604109C4F2000CAC
S315020805905CF8213000F01F00012202FA00F018432D
S315020805A04CF821007047D4D40122EFF3108182F36C
S315020805B010884AF29042C2F20E2232F8103023B163
S315020805C032F81030013B22F8103032F8102012B1FE
S315020805D081F3108870474EF2FA3CC4F2010C40F6D9
S315020805E0C622BCF80030C0F2082232F8100043F4E2
S315020805F0254222EA0000ACF8000081F31088704711
S3150208060080B56F460122EFF3108182F310884AF211
S315020806109042C2F20E2232F810308BB94EF2FA3CF0
S3150208062040F6C623C4F2010CC0F20823BCF800E067
S3150208063033F8103043EA0E0343F42543ACF800308E
S3150208064032F81030013322F8103081F3108880BD59
S3150208065080B56F4600F006F8FFF760FDFEE7D4D4D2
S3150208066000BE7047F0B503AF2DE9000B4EF60850F1
S31502080670CEF200004FF47001C0F8801040F200017B
S31502080680C0F208214CF2040401600020C4F20104FD
S31502080690FFF736FDFFF780FE206840F00100206074
S315020806A020680028FCD1012044F8040CFFF728FD35
S315020806B040F69808C0F20828D8F800604AF2000006
S315020806C0C2F20E2080F30A888EB1D8F804003546A5
S315020806D0041D03E0013D04F10C0408D060790028EA
S315020806E0F8D154E90101091A00F0A6F8F2E7D8F898
S315020806F00890B9F1000F13D0D8F80C004D4600F156
S31502080700080403E0013D04F1100409D060790028C9
S31502080710F8D154E902022168121A00F091F8F1E7B9
S31502080720FFF7E4FD0320FFF76BFF44F20400C4F26F
S3150208073020000021016041608160C1600320FFF74B
S3150208074033FF0220FFF7DCFCA6B1D8F804004FF409
S315020807508075041D04E000BF013E04F10C0409D0B3
S315020807606079B5EB002FF7D154E90101091A00F0B7
S3150208077063F8F1E7B9F1000F16D0D8F80C004FF478
S31502080780807600F1080404E0B9F1010904F11004C5
S315020807900AD06079B6EB002FF6D154E90202216835
S315020807A0121A00F04DF8EFE74AF2A444C2F20E24F8
S315020807B0204600F021F8204600F034F840F62A30A8
S315020807C040F62A31C0F20820C0F20821091A8C1014
S315020807D0012C06DB051F00BF55F8040F8047013CB4
S315020807E0FAD1FFF7C3FE0020BDE8000BBDE8F040D2
S315020807F000F000B87047D4D4D0B502AF0549044614
S31502080800054A00F01DF805480549204400F014F889
S31502080810D0BD00BF40000802000000000000000032
S31502080820000000000249401A02490860704700BFEA
S3150208083008000000A0A40E220A46002100F00AB809
S31502080840D0B502AF00239A4203D0CC5CC45401331C
S31502080850F9E7D0BD00239A4208BF7047C154013355
S31502080860F9E7D4D4000000000000000000000000F0
S31502080870020403040404D4D40000006C0000006CD3
S315020808800000008800000088000000740000007460
S3150208089000A00E2200A00E220B000000B0080802DB
S315020808A0190000003409080204000000780808024A
S315020808B00000006C0000006C0001000D0000006CD6
S315020808C00000006C0001000D00000088000000888E
S315020808D000010008000000880000008800010008E6
S315020808E000000074000000740001000A0000007491
S315020808F0000000740001000A000000000000000069
S31502080900000000060000002000000020000000078A
S3150208091000A00E2200A00E220000000330A40E2220
S31502080920A4A40E2200000003A4A40E22A4A40E224C
S31502080930000000030000006C0000006C0000009834
S315020809400001090D0000006C0000006C0000007C2C
S3150208095000010B0D0000006C0000006C000000276F
S315020809600001020D0000006C0000006C4000080245
S315020809700001010D000000880000008800000098B0
S315020809800001090800000088000000880000007CB9
S3150208099000010B08000000880000008800000027FC
S315020809A000010208000000880000008840000802D2
S315020809B0000101080000007400000074000000989D
S315020809C00001090A00000074000000740000007C9F
S315020809D000010B0A000000740000007400000027E2
S315020809E00001020A000000740000007440000802B8
S315020809F00001010A00000000000000000000009843
S31502080A000001090600000000000000000000007C4A
S31502080A1000010B060000000000000000000000278D
S31502080A200000020600000000000000004000080264
S31502080A3000000106000000200000002000000098C7
S31502080A400001090700000020000000200000007CC9
S31502080A5000010B070000002000000020000000270C
S31502080A6000000207000000200000002040000802E3
S31502080A700000010700A00E2200A00E220000009826
S31502080A800001090300A00E2200A00E220000007C2D
S31502080A9000010B0300A00E2200A00E220000002770
S31502080AA00000020300A00E2200A00E224000080247
S31502080AB000000103A4A40E22A4A40E2240000802E8
S31502080AC000000103000001000200080010000006F1
S31502080AD00303070A03000000CE0A08020000000604
S31502080AE0362E302E30004275696C74207769746828
S31502080AF02052656E6573617320416476616E636523
S31502080B006420466C657869626C6520536F667477F3
S31502080B10617265205061636B6167652076657273E1
S30F02080B20696F6E20362E302E300063
S7050208065199
