S01500006C656474657374735F435055302E7372656330
S3150200000000040022DD0B0002C90A0002EB0B00020B
S31502000010EB0B0002EB0B0002EB0B0002EB0B0002F8
S31502000020000000000000000000000000EB0B0002D0
S31502000030EB0B000200000000EB0B0002EB0B0002D0
S3150200004080B56F4641F274604FF00272C0F2002032
S31502000050018844684FF24400C4F2000000294AF2C3
S31502000060015102604FF000020274018453D040F63F
S31502000070145940F28C4640F6000A43F6FA78C4F266
S3150200008040090125C2F20026C4F2400ACFF6FE78E4
S315020000904FF0000B09E080F310884FF4FA704FF42A
S315020000A07A718BF0010B00F0CCFCEFF3108085F334
S315020000B01088316829B9002189F80010402189F891
S315020000C0001031686FF03F020131316080F3108811
S315020000D02088C1B202EA900000EB81004BF00401D5
S315020000E0C9B250F80A2002EA0802114340F80A107F
S315020000F0EFF3108085F31088316811B13168013948
S31502000100316031680029C6D1002189F800108021AA
S3150200011089F80010BFE7FEE7022818BF704740F2D1
S31502000120304041F20441C2F20020C0F2002100F048
S3150200013006B880B56F46FFF783FF002080BD80B505
S315020001406F4645F25422C5F24F020260084600F09D
S3150200015002F8002080BDF0B503AF4DF804BD044699
S3150200016000F060F840F28C4CEFF31081C2F2002CE2
S31502000170012080F31088DCF8000038B940F61450EC
S315020001800022C4F24000027040220270DCF8000035
S315020001900130CCF8000081F31088208828B340F69D
S315020001A0000E0021C4F2400E07E00EEB8010013172
S315020001B040F822302088814217D2606800EBC102E3
S315020001C050F831309288D8034FEA1220D2B2ECD5D9
S315020001D00EEB801555F8226026F4803645F822602B
S315020001E023F4803645F82260DFE70120EFF3108121
S315020001F080F31088DCF8000020B1DCF8000001383A
S31502000200CCF80000DCF8000038B940F614500022A1
S31502000210C4F2400002708022027081F310885DF8F9
S3150200022004BBF0BDF0B503AF2DE9000F81B0044663
S315020002300088002861D04EF64C4B0025C4F2010B13
S3150200024003E020880135854257D241F2104942F235
S3150200025040080026C0F20029C4F220080AE088F805
S315020002600000C820012100F0ECFB013608F102086B
S31502000270032EE6D0606839F8022B00EBC5018988A7
S315020002809142F2D150F835009BF80010012200F09D
S31502000290B85002FA06FAB0F1807F0AEA010015D1D7
S315020002A058B9012000F073FC9BF8000040EA0A00EE
S315020002B08BF80000012000F040FC98F900000028AD
S315020002C0D3D498F8000040F08000C8E758B1012066
S315020002D000F05DFC9BF8000020EA0A008BF80000A3
S315020002E0012000F02AFC98F90000B0F1FF3FBCDCC7
S315020002F098F8000000F07F00B1E701B0BDE8000FFA
S31502000300F0BDD4D44EF22401C4F2010188780988E2
S3150200031001F00F02A2F1080103293BD8DFE801F040
S31502000320022C101E40F20041C2F2002151F82000B8
S315020003304AF6AB21CAF6AA21A0FB0101480830E021
S3150200034040F20041C2F2002151F820004AF6AB21E8
S31502000350CAF6AA21A0FB0101C80822E040F2004128
S31502000360C2F2002151F820004AF6AB21CAF6AA21B0
S31502000370A0FB0101080914E040F20041C2F200218B
S3150200038051F820004AF6AB21CAF6AA21A0FB0101C8
S31502000390880806E040F20041C2F2002151F820002E
S315020003A0D04040F29841C2F2002108607047D4D48E
S315020003B0F0B503AF2DE9000F81B00FF2E4504EF213
S315020003C0FA3840F2004BC4F2010890ED001FC2F267
S315020003D0002B0FF2DC504AF203514EF25505CFF6CE
S315020003E0FF71A8F800108BED001F0BF12003C4F279
S315020003F0010590ED001F48F2004040F60001C1F2EF
S31502000400D77043F600028BED041FC2F6AF71C1F638
S315020004109C4207C315F82F0C35F8311C01F00F0268
S31502000420A2F1080103292BD8DFE801F002200C16FD
S315020004304AF6AB215BF82000CAF6AA21A0FB01010D
S31502000440480820E04AF6AB215BF82000CAF6AA214A
S31502000450A0FB0101C80816E04AF6AB215BF82000B2
S31502000460CAF6AA21A0FB010108090CE04AF6AB2153
S315020004705BF82000CAF6AA21A0FB0101880802E067
S315020004805BF82000D04040F2984A4EF60046C2F28F
S31502000490002AC4F201060A214EF60144CAF80000F7
S315020004A04FF65060CFF6FF704AF20359C4F20104C8
S315020004B03154092085F84D00307818B92078800724
S315020004C000F06282307840B901203070C8200121E4
S315020004D000F0B7FA30780128FCD100202070307085
S315020004E0002005F81F0C05F8230C15F8190C000757
S315020004F0FBD542F60230C0F20100C5F8730040F2A5
S31502000500234025F8070C002005F80B0C4FF60210C5
S31502000510C5F8570040F2514025F8090C15F8410C70
S3150200052000F0F800013005F8410C15F8410CC00640
S31502000530FBD4002005F82B0C15F8190C8006FBD508
S315020005404CF200060020C4F2130630703078307880
S3150200055030787068FA2806D0FA20C1F6006070601A
S315020005607168FA29FBD1B0687D2806D07D20CEF2CB
S315020005700010B060B1687D29FBD143F23240C3F26C
S31502000580232045F8350C42F2201025F8310C0520BF
S3150200059005F82F0C15F82F0C35F8311C01F00F0257
S315020005A0A2F1080103292BD8DFE801F002200C167C
S315020005B04AF6AB215BF82000CAF6AA21A0FB01018C
S315020005C0480820E04AF6AB215BF82000CAF6AA21C9
S315020005D0A0FB0101C80816E04AF6AB215BF8200031
S315020005E0CAF6AA21A0FB010108090CE04AF6AB21D2
S315020005F05BF82000CAF6AA21A0FB0101880802E0E6
S315020006005BF82000D040CAF800001E200121012418
S3150200061000F017FA70686FF39F20652828BF3470C0
S3150200062015F82F0C35F8311C01F00F02A2F1080162
S3150200063003292BD8DFE801F002200C164AF6AB217B
S315020006405BF82000CAF6AA21A0FB0101480820E0B7
S315020006504AF6AB215BF82000CAF6AA21A0FB0101EB
S31502000660C80816E04AF6AB215BF82000CAF6AA21B2
S31502000670A0FB010108090CE04AF6AB215BF8200059
S31502000680CAF6AA21A0FB0101880802E05BF8200055
S31502000690D040CAF8000042F20000C4F20000A9F1FC
S315020006A0020101800121BFF35F8F01724FF42541E0
S315020006B0BFF35F8F018095F8850040F0400085F812
S315020006C0850095F98500B0F1FF3FFADC032085F835
S315020006D07F00C92085F8850095F8850000F0BF00E7
S315020006E085F8850095F985000028FBD4012005F8D8
S315020006F0250C05F8030C05F8020C002005F8170C6A
S31502000700802005F8170CE87F40F04000E87795F95D
S315020007101F00B0F1FF3FFADC0720E8754A20E877B0
S315020007200A20E87795F91F000028FBD4B8F80000E4
S31502000730A8F8009095F8201041F0400185F82010A5
S3150200074095F92010B1F1FF3FFADC00212976472105
S3150200075085F82010072185F8201095F92010002928
S31502000760FBD4A8F8000095F8210040F0400085F877
S31502000770210095F92100B0F1FF3FFADC03206876EB
S31502000780CA2085F8210095F8210000F0BF0085F8FF
S31502000790210095F921000028FBD4287840F040007A
S315020007A0287095F90000B0F1FF3FFADC022005F847
S315020007B0010CCA202870287800F0BF00287095F92D
S315020007C000000028FBD4A87840F04000A87095F9F4
S315020007D00200B0F1FF3FFADC00206870C720A87063
S315020007E0A87800F0BF00A87095F902000028FBD493
S315020007F0287A40F04000287295F90800B0F1FF3FD0
S31502000800FADC0120E871C6202872287A00F0BF00BF
S31502000810287295F908000028FBD495F8230040F0C9
S31502000820400085F8230095F92300B0F1FF3FFADC7A
S315020008300220E876C92085F8230095F8230000F007
S31502000840BF0085F8230095F923000028FBD4A87A77
S3150200085040F04000A87295F90A00B0F1FF3FFADCB9
S3150200086001206872CA20A872A87A00F0BF00A87296
S3150200087095F90A000028FBD495F8220040F04000C2
S3150200088085F8220095F92200B0F1FF3FFADC042038
S31502000890A876CA2085F8220095F8220000F0BF004B
S315020008A085F8220095F922000028FBD4A87940F0A9
S315020008B04000A87195F90600B0F1FF3FFADC02206C
S315020008C06871CA20A871A87900F0BF00A87195F9CD
S315020008D006000028FBD495F8860040F0400085F813
S315020008E0860095F98600B0F1FF3FFADC022085F812
S315020008F08000C52085F8860095F8860000F0BF00C6
S3150200090085F8860095F986000028FBD495F88700BD
S3150200091040F0400085F8870095F98700B0F1FF3F67
S31502000920FADC012085F88100C52085F8870095F854
S31502000930870000F0BF0085F8870095F98700002838
S31502000940FBD495F8890040F0400085F8890095F9B6
S315020009508900B0F1FF3FFADC092085F88300C9203F
S3150200096085F8890095F8890000F0BF0085F88900AE
S3150200097095F989000028FBD44FF42540A8F8000019
S3150200098001B0BDE8000FF0BD4FF47A7000F018F820
S31502000990A6E500BF00BF00BF00BF00BF00BF00BF8B
S315020009A0006CDC0200127A000080000000366E0144
S315020009B00080000000CA9A3B0046C3235543DE135B
S315020009C07047B0B502AF42F22404C820C4F2200434
S315020009D001210025257100F034F82570207808B130
S315020009E02FF005C0207840F00200207020788007A2
S315020009F0FCD4002004F8020C14F8020C08B12FF003
S31502000A0005C84FF0030E002004F11C0111F8102056
S31502000A1002F07F0201F8102011F91020002AFBD4FF
S31502000A2001300FF00DC8012000F0B1F84EF64C412E
S31502000A300120C4F2010100220A70BDE8B04000F0B4
S31502000A407CB840F2984241F20023C2F20022C0F280
S31502000A507A03484312689A420FD344F23F21C0F206
S31502000A600F0111444DF68362C4F21B32A1FB02123E
S31502000A70910CA0FB0101C9B11DE04CF60021C3F6A1
S31502000A809A31B1FBF2F148F63812C0F241029042B5
S31502000A9005D24FF47A725043B0FBF1F006E0B0FB98
S31502000AA0F1F0904207D24FF47A714843002808BF0A
S31502000AB0704700F005B84FF0FF3000F001B8D4D40B
S31502000AC001380028FCD17047F0B503AF4DF8048D0C
S31502000AD04CF2201840F23844C4F200080026C2F252
S31502000AE0002458F8200CD8F8001001EA000503E0AB
S31502000AF001360434152E09D025FA06F0C007F7D0C0
S31502000B0021680029F4D0F0B28847F1E748F8105C72
S31502000B10D8F800002842FBD15DF8048BF0BD41F203
S31502000B206460C0F200200088002808BF70474CF2BB
S31502000B300031C4F20001086070470122EFF3108110
S31502000B4082F3108840F29042C2F2002232F810304C
S31502000B5023B132F81030013B22F8103032F810205F
S31502000B6012B181F3108870474EF2FA3241F2666C86
S31502000B70C4F20102C0F2002C13883CF8100043F4C0
S31502000B80254323EA0000108081F310887047D0B510
S31502000B9002AF0122EFF3108182F3108840F29042F5
S31502000BA0C2F2002232F8103083B94EF2FA3E41F216
S31502000BB0666CC4F2010EC0F2002CBEF800403CF88E
S31502000BC01030234343F42543AEF8003032F8103098
S31502000BD0013322F8103081F31088D0BD80B56F46FC
S31502000BE000F006F8FFF7A5FAFEE700BE7047D4D478
S31502000BF0F0B503AF2DE900074EF6085840F2012082
S31502000C00CEF20008C0F20E004EF20004C8F80C0044
S31502000C10CEF20104BFF34F8FBFF36F8F58F8080C63
S31502000C20C0F3035110F00F0F5FEA0F9001295FEA3C
S31502000C301081206810D879B940F0040020604EF285
S31502000C400800BFF34F8FCEF20000BFF36F8F01682B
S31502000C5041F48031016002E020F004002060BFF31D
S31502000C604F8FBFF36F8F4FF4700040F20001C8F848
S31502000C7080000020C0F20021C8F80010FFF74CFAED
S31502000C80FFF796FB0120FFF747FA40F20000C2F297
S31502000C90002080F30A882068800725D5D8F800004E
S31502000CA0B0F1007F20D120694FF40071C0F3C30078
S31502000CB0626901FA00F3C2F3C30081400020DA0838
S31502000CC00646CB08014642F007C800BF00BF00BF78
S31502000CD0E6E802010FF005C04FF0005243F005C0EE
S31502000CE0E2E802010FF005C041F23849C0F20029DC
S31502000CF0D9F800508DB1D9F804002E46041D03E040
S31502000D00013E04F10C0408D060790028F8D154E9B8
S31502000D100101091A00F0F0F8F2E7D9F808A0BAF1D1
S31502000D20000F13D0D9F80C00564600F1080403E070
S31502000D30013E04F1100409D060790028F8D154E983
S31502000D4002022168121A00F0DBF8F1E7FFF7DAFA7D
S31502000D50FFF737FE0320FFF71AFF4FF00E0E40F69D
S31502000D603050C4F24000002120F8041B0FF005C0E9
S31502000D704EF210140320C4F20104FFF7DEFE032034
S31502000D80FFF705FF44F204000021C4F220000160CF
S31502000D9041608160C1600320FFF7CFFED4F8C8022C
S31502000DA010B1D4F8C80211E0207878B10120FFF71B
S31502000DB0EEFE207800F0C0008028FAD100202070D4
S31502000DC020783F28FCD80120FFF7B7FE0120FFF765
S31502000DD0DEFE207900F0C0008028FAD100202071C2
S31502000DE020793F28FCD80120FFF7A7FE0220FFF753
S31502000DF093F99DB1D9F804004FF48076041D03E0FF
S31502000E00013D04F10C0409D06079B6EB002FF7D14D
S31502000E1054E90101091A00F06FF8F1E7BAF1000F7F
S31502000E2016D0D9F80C004FF4807500F1080404E0DE
S31502000E30BAF1010A04F110040AD06079B5EB002F69
S31502000E40F6D154E902022168121A00F059F8EFE7C6
S31502000E5040F2A444C2F20024204600F02DF82046B7
S31502000E6000F040F8BFF34F8F002041F2CA61BFF392
S31502000E706F8FC8F8480241F2CA60C0F20020C0F281
S31502000E800021BFF34F8F081ABFF36F8F8410012C16
S31502000E9008DB41F2CA65C0F2002555F8040B80470B
S31502000EA0013CFAD1FFF73BFE0020BDE80007BDE892
S31502000EB0F04000F000B87047D0B502AF05490446CD
S31502000EC0054A00F01DF805480549204400F014F8CB
S31502000ED0D0BD00BF4000000200000000000000007C
S31502000EE0000000000249401A02490860704700BF2C
S31502000EF008000000A00400220A46002100F00AB8F9
S31502000F00D0B502AF00239A4203D0CC5CC45401335D
S31502000F10F9E7D0BD00239A4208BF7047C154013396
S31502000F20F9E7D4D4004000000000000000400000B1
S31502000F30060000000040000008000000004000001B
S31502000F4009000000004000000C00000045000000FF
S31502000F500D000000000C011C00010000000C011C29
S31502000F6001010000000C011C02010000000C011C22
S31502000F7003010000000C011C04010000000C011C0E
S31502000F8005010000000C011C0601000000400000E3
S31502000F90070100004504000009010000104000009E
S31502000FA00B010000000C010B0C010000000C010BF0
S31502000FB00D010000000C010B0E010000000C010BDC
S31502000FC00F0100000040000000020000000C0118A2
S31502000FD006020000000C011907020000000C0100C5
S31502000FE008020000000C010009020000000C0100CA
S31502000FF00A020000000C01000B020000000C010BAB
S3150200100000030000000C010B01030000000C010BA1
S3150200101002030000040C000003030000000C011888
S3150200102004030000000C011805030000000C01185F
S3150200103006030000000C011807030000000C01184B
S3150200104009030000000C01180A030000400C010706
S3150200105000040000400C0107010400000000011218
S315020010600204000000000112030400000000011245
S315020010700404000000040112050400000004011229
S315020010800604000000040113070400000004011412
S31502001090080400000004011F0B04000000040118EC
S315020010A00E040000000401180F04000000000113E2
S315020010B000050000000C0103010500000004011BED
S315020010C002050000000C010B03050000000C010BD9
S315020010D004050000000C010B05050000000C010BC5
S315020010E006050000000C010B07050000000C010BB1
S315020010F008050000000C010B09050000000C010B9D
S315020011000A050000400401070B0500004004010720
S315020011100C050000000C01190D0500000404000076
S315020011200E050000000C01190F050000040C00005A
S31502001130000600000404000006060000000C010B75
S3150200114007060000000C010B08060000000C010B4C
S3150200115009060000000C010B0A060000000C010B38
S315020011600B060000000C010B0C060000000C010B24
S315020011700D060000000C010B0E060000000C010B10
S315020011800F060000000C0119070700000404000006
S31502001190080700000404000009070000000C0119FA
S315020011A00A070000000C01190B070000000C0119C8
S315020011B00C070000000C01190D070000000C0119B4
S315020011C00E070000000C01190F070000000C011C9D
S315020011D000080000000C011C01080000000C011CA4
S315020011E002080000000C011C03080000000C011C90
S315020011F004080000000C011905080000000C011982
S3150200120006080000000C011907080000000C011C6A
S31502001210080800000004011B0C080000000C010B6A
S315020012200D080000000C01130E080000000C01134B
S315020012300F080000000C011902090000000C011938
S3150200124003090000000C011904090000000C011832
S3150200125005090000000C011806090000000C01181F
S3150200126007090000000C011808090000000C01180B
S3150200127009090000000C01190A090000000C0119F5
S315020012800B090000000C01190C090000000C0119E1
S315020012900D090000000C01190E090000000C0119CD
S315020012A00F090000000C010B000A0000000C010BE4
S315020012B0010A0000000C010B020A0000000C010BDF
S315020012C0030A0000000C010B040A0000000C010BCB
S315020012D0050A0000000C010B060A0000040C0000BF
S315020012E0070A0000000C010B080A0000000C010BA3
S315020012F0090A0000000C010B0A0A0000000C010B8F
S315020013000B0A0000000C010B0C0A0000000C010B7A
S315020013100D0A0000000C010B0E0A0000000C010B66
S315020013200F0A0000000C0119000B0000000C011945
S31502001330010B0000000C0119020B0000000C011940
S31502001340030B0000000C0119040B0000000C01192C
S31502001350050B0000000C0119060B0000000C011918
S31502001360070B0000000C010B000C0000000C010B27
S31502001370010C0000000C010B020C0000000C010B1A
S31502001380030C0000000C010B040C0000000C010B06
S31502001390050C0000000C010B060C0000000C010BF2
S315020013A0070C0000000C010B080C0000000C010BDE
S315020013B0090C0000000C010B0A0C0000000C010BCA
S315020013C00B0C0000000C010B0C0C0000000C010BB6
S315020013D00D0C0000000C010B0E0C0000000C010BA2
S315020013E00F0C0000000C010B000D0000000C0104A4
S315020013F0020D0000000C0104030D0000000401149C
S31502001400070D00009C000000240F000200000000EF
S31502001410020403040404D4D4000000680000006837
S3150200142000000080000000800000007000000070D4
S3150200143000000022000000220B00000050140002EF
S3150200144019000000D414000204000000181400025F
S3150200145000000068000000680001000D000000683E
S31502001460000000680001000D0000008000000080FE
S315020014700001000800000080000000800001000852
S3150200148000000070000000700001000A00000070F9
S31502001490000000700001000A0000000000000000C9
S315020014A001000005000000200000002001000004E9
S315020014B00000002200000022000000033004002287
S315020014C0A404002200000003A4040022A4040022B3
S315020014D000000003000000680000006800000090A1
S315020014E00001090D00000068000000680000007895
S315020014F000010B0D000000680000006800000027D4
S315020015000001020D000000680000006840000002B1
S315020015100001010D00000080000000800000009024
S315020015200001090800000080000000800000007829
S3150200153000010B0800000080000000800000002768
S315020015400001020800000080000000804000000246
S315020015500001010800000070000000700000009009
S315020015600001090A00000070000000700000007807
S3150200157000010B0A00000070000000700000002746
S315020015800001020A00000070000000704000000224
S315020015900001010A000000000000000000000090A7
S315020015A001010905000000000000000000000078AB
S315020015B001010B05000000000000000000000027EA
S315020015C001000205000000000000000040000002C9
S315020015D0010001050000002000000020000000902C
S315020015E0010109040000002000000020000000782C
S315020015F001010B040000002000000020000000276B
S315020016000100020400000020000000204000000249
S3150200161001000104000000220000002200000090E8
S3150200162000010903000000220000002200000078E9
S3150200163000010B0300000022000000220000002728
S315020016400000020300000022000000224000000207
S3150200165000000103A4040022A404002240000002A8
S31502001660000001030000010002000800100000064D
S315020016700303070A030000006E16000200000006BC
S31502001680362E302E30004275696C74207769746884
S315020016902052656E6573617320416476616E63657F
S315020016A06420466C657869626C6520536F66747750
S315020016B0617265205061636B61676520766572733E
S30F020016C0696F6E20362E302E3000C0
S30902C9F040FFFFFFFFFF
S30902C9F044E9FFFFFF11
S30902C9F0C0FFFFFFFD81
S30902C9F0C4FFFFFFBFBB
S30902C9F120000000001A
S30902C9F1240000000016
S70502000BDD10
